:100000000C94C6000C94E3000C94E3000C94E30001
:100010000C94E3000C94E3000C94E3000C94E300D4
:100020000C94E3000C94E3000C94E3000C94E300C4
:100030000C94E3000C94EF010C94E3000C94340254
:100040000C94E3000C94E3000C94E3000C94E300A4
:100050000C94E3003031323334353637383941428D
:10006000434445460041542B434D47443D25640AD3
:1000700000220A0041542B434D47533D2200415476
:100080002B434D47523D25640A006E616E00696E38
:10009000660000407A10F35A00A0724E1809001052
:1000A000A5D4E80000E87648170000E40B540200ED
:1000B00000CA9A3B000000E1F50500008096980018
:1000C000000040420F000000A08601000000102741
:1000D00000000000E80300000000640000000000D1
:1000E0000A00000000000100000000002C76D88803
:1000F000DC674F0823DFC1DFAE59E1B1B796E5E316
:10010000E453C63AE651997696E8E6C28426EB892E
:100110008C9B62ED407C6FFCEFBC9C9F40F2BAA5CB
:100120006FA5F490055A2AF75C936B6CF9676DC163
:100130001BFCE0E40D47FEF520E6B500D0ED902E67
:100140000300943577050080841E080000204E0AC5
:10015000000000C80C333333330F986E1283114103
:10016000EF8D2114893BE65516CFFEE6DB18D184CE
:100170004B381BF77C1D901DA4BBE42420328472F5
:100180005E228100C9F124ECA1E53D2711241FBEA8
:10019000CFE5D8E0DEBFCDBF10E0A0E6B0E0EEEFE7
:1001A000F6E402C005900D92AA3FB107D9F712E01C
:1001B000AAEFB0E001C01D92A933B107E1F70E9498
:1001C000AA190C947D230C940000FC018FB7F894BD
:1001D000718360835383428317821682158214824F
:1001E0008FBF0895DC016FB7F89414962D913C9160
:1001F00015972115310531F116968D919C91179720
:10020000ED91FC911197E80FF91FE0810196179687
:100210009C938E93169712964D915C911397841729
:10022000950748F42150304015963C932E9314972F
:100230006FBF8E2F0895841B950B17969C938E93FA
:100240001697F0CFE0E06FBF8E2F0895FC01AFB797
:10025000F8942481358162177307A8F48681978109
:10026000860F971F97838683428153818417950752
:1002700020F0841B950B97838683261B370B3583D1
:100280002483AFBF089515821482AFBF0895FC0187
:10029000CB012FB7F8942FBF2681378162817381FC
:1002A000820F931F0E94A01F0190F081E02DE80FA4
:1002B000F91F808108951F93CF93DF93EC01462FA0
:1002C0001FB7F8942C813D816A817B8126173707FF
:1002D000B0F48E819F81820F931F0E94A01FE8813E
:1002E000F981E80FF91F40838C819D8101969D83E0
:1002F0008C831FBF8FEFDF91CF911F9108951FBF98
:1003000080E0DF91CF911F910895FC018FB7F894A1
:100310008FBF2281338184819581281B390BC901CC
:100320000895FC018FB7F894158214828FBF089549
:100330002091290230912A022115310511F021E086
:1003400030E0C9010895909303028093020208955A
:100350009B01AC0160577F428C4F9F4F660F771F08
:10036000881F991F660F771F881F991F660F771FB9
:10037000881F991F220F331F441F551F220F331F41
:10038000441F551F220F331F441F551F220F331FB9
:10039000441F551F0E94C71F2150304029B930BD4E
:1003A000089588E192E0089581E292E00895982FFF
:1003B000809117028823E1F39CB9109217020895E7
:1003C00010921D0210921C02089580911C029091BF
:1003D0001D02892B11F080E008958FEF08951F9280
:1003E0000F920FB60F9211242F933F934F935F9369
:1003F0006F937F938F939F93AF93BF93EF93FF93ED
:100400006CB18091020290910302892BB9F0E091C6
:100410000202F0910302862F0995FF91EF91BF919F
:10042000AF919F918F917F916F915F914F913F918C
:100430002F910F900FBE0F901F90189588E192E0BA
:100440000E945B01882349F78091290290912A023A
:10045000019690932A0280932902DFCF682F81E2D0
:1004600092E00E945B0108951F920F920FB60F92C7
:1004700011242F933F934F935F936F937F938F93A9
:100480009F93AF93BF93EF93FF93809120028823B4
:1004900061F08091250290912602892BD1F410926F
:1004A00020028FEF8093170203C08FEF8093170213
:1004B000FF91EF91BF91AF919F918F917F916F913C
:1004C0005F914F913F912F910F900FBE0F901F9012
:1004D000189581E292E00E94F2008CB9E9CF8FEF8B
:1004E0008093200281E292E00E94F200982F809196
:1004F00017028823E1F39CB9109217020895CF9355
:10050000DF93EC0180911A0290911B02892B31F04C
:1005100080911C0290911D02892B21F480E0DF91D3
:10052000CF91089588E192E00E94F20088838FEFD6
:10053000DF91CF91089588E192E06AEF70E048EC96
:1005400050E00E94E50081E292E062EC71E040E45C
:1005500050E00E94E500089580911A0290911B02DC
:10056000892B31F080911C0290911D02892B21F47E
:100570002FEF3FEFC901089588E192E00E94F20059
:10058000282F30E0C901089588E192E06AEF70E019
:1005900048EC50E00E94E50081E292E062EC71E0FC
:1005A00040E450E00E94E500109203021092020223
:1005B00088ED8AB98CE089B910BC8FEF809317025F
:1005C0001092200210922A02109229027894089523
:1005D000909305028093040208951F93182F8A3088
:1005E00041F0E0910402F0910502812F09951F91DD
:1005F0000895E0910402F09105028DE00995E091E3
:100600000402F0910502812F09951F9108951F930F
:10061000CF93DF93EC01009739F413C0E09104020B
:10062000F0910502812F09951881112351F021962F
:100630001A30A1F7E0910402F09105028DE00995CE
:10064000EDCFDF91CF911F910895CF92DF92EF927E
:10065000FF921F93CF93DF937C016A01009779F19A
:1006600020E030E02617370738F4F70181917F0149
:100670002F5F3F4F8823B1F7C114D10401F1C0E0CF
:10068000D0E00FC01A3019F10894E11CF11CE09180
:100690000402F0910502812F09952196CC15DD0504
:1006A00070F4F7011081112369F7E0910402F091D1
:1006B000050280E209952196CC15DD0590F3DF91C6
:1006C000CF911F91FF90EF90DF90CF900895E09130
:1006D0000402F09105028DE00995D6CF1F93CF93C8
:1006E000DF93FC010097C9F014911123B1F0EC01E4
:1006F0000AC0E0910402F0910502812F0995FE01E4
:100700001491112351F021961A3099F7E0910402C7
:10071000F09105028DE00995ECCFDF91CF911F910B
:1007200008952F923F924F925F926F927F928F9295
:100730009F92AF92BF92CF92DF92EF92FF920F9370
:100740001F93DF93CF93CDB7DEB7A5970FB6F8947D
:10075000DEBF0FBECDBF6BA3A42E2CA317012801B3
:10076000442311F017FDA9C0820171012BA1215072
:100770002AA390E0A11091E0EAA1E91BE9A318A245
:10078000682E772467FC7094872C972CC801B701DA
:10079000A40193010E94C71FFB01EF70F070EC5A97
:1007A000FF4F64916F8FC801B701A40193010E94AC
:1007B000C71FC901DA017C018D018EE1C82ED12C41
:1007C000CC0EDD1EB9A01CC0C801B701A401930165
:1007D0000E94C71FFB01EF70F070EC5AFF4F64914D
:1007E000F6016083C801B701A40193010E94C71FED
:1007F000C901DA017C018D01BA940894C108D108BD
:10080000BB2049F0E114F10401051105E9F62CA122
:10081000F6012083F1CFCE014F96FC0129A1E21B06
:10082000F109AA2051F057FC45C0211431044104BC
:10083000510409F44AC08BE282938BA1882309F109
:100840008F019AA1E92EFF240894E11CF11CEE0E01
:10085000FF1E09C0E0910402F0910502892F09955D
:100860000E151F0571F0F80191918F019A3091F7E3
:10087000E0910402F09105028DE09DA309959DA1F0
:10088000E9CFA5960FB6F894DEBF0FBECDBFCF91CE
:10089000DF911F910F91FF90EF90DF90CF90BF906D
:1008A000AF909F908F907F906F905F904F903F9010
:1008B0002F9008958DE28293C0CFEE24FF2487010C
:1008C000E218F3080409150951CF80E28293B5CFED
:1008D0001F93E82FF0E0EF70F070EC5AFF4F149187
:1008E0001A3041F0E0910402F0910502812F099540
:1008F0001F910895E0910402F09105028DE00995A1
:10090000E0910402F0910502812F09951F9108954D
:10091000E0910402F09105028DE00995E091040256
:10092000F09105028AE0099508950F931F93082F0F
:10093000E82FE295EF70F0E0EC5AFF4F14911A3077
:10094000C1F0E0910402F0910502812F0995E02F9A
:10095000F0E0EF70F070EC5AFF4F14911A3081F014
:10096000E0910402F0910502812F09951F910F91EA
:100970000895E0910402F09105028DE00995E1CF20
:10098000E0910402F09105028DE00995E9CF2F92E4
:100990003F924F925F926F927F928F929F92AF920F
:1009A000BF92CF92DF92EF92FF920F931F93DF934C
:1009B000CF930F92CDB7DEB7D82E2A013B01CB01E2
:1009C000BA0120E030E040E050E00E94391F1816E4
:1009D0000CF0B6C153014201C501B40120E030E082
:1009E00040E251E40E94EF1D88230CF4BBC1C50115
:1009F000B40120E030E040E251E40E94F31D20E029
:100A000030E040E251E40E94EF1D88230CF4B5C1B0
:100A1000C501B40120E030E048EC52E40E94F31D2F
:100A200020E030E040E251E40E94EF1D88230CF406
:100A3000AFC1C501B40120E030E04AE754E40E94B0
:100A4000F31D20E030E040E251E40E94EF1D8823D6
:100A50000CF4A9C1C501B40120E030E44CE156E436
:100A60000E94F31D20E030E040E251E40E94EF1DBF
:100A700088230CF4A3C1C501B40120E030E543ECA8
:100A800057E40E94F31D20E030E040E251E40E9470
:100A9000EF1D88230CF49DC1C501B40120E034E2B0
:100AA00044E759E40E94F31D20E030E040E251E4C5
:100AB0000E94EF1D88230CF497C1C501B40120E802
:100AC00036E948E15BE40E94F31D20E030E040E2BB
:100AD00051E40E94EF1D88230CF491C1C501B401BB
:100AE00020E23CEB4EEB5CE40E94F31D20E030E0A2
:100AF00040E251E40E94EF1D88230CF48BC1C50134
:100B0000B40128E23BE64EE65EE40E94F31D20E0DD
:100B100030E040E251E40E94EF1D88230CF485C1CF
:100B2000C501B40129EF32E045E150E50E94F31D13
:100B300020E030E040E251E40E94EF1D88230CF4F5
:100B40007FC1C501B40127EB33E44AEB51E50E94B4
:100B5000F31D20E030E040E251E40E94EF1D8823C5
:100B60000CF479C1C501B40125EA34ED48E653E53A
:100B70000E94F31D20E030E040E251E40E94EF1DAE
:100B800088230CF473C1C501B40127EE34E841E1B8
:100B900055E50E94F31D20E030E040E251E40E9460
:100BA000EF1D88230CF46DC1C501B40121E236EEBE
:100BB00045EB56E50E94F31D20E030E040E251E4B1
:100BC0000E94EF1D87FDC3C00F2EF9EAEF2EFFE54F
:100BD000FF2EF3E60F2FF8E51F2FF02DC301B20112
:100BE00020E030E040E050E00E94EF1D88230CF44C
:100BF000A0C0E0910402F09105028BE209954D2C12
:100C0000552447FC5094141415040CF075C0DD24D1
:100C100066243DC0972D905D9A3009F481C0E09123
:100C20000402F0910502892F0995DD24DA94C801A8
:100C3000B70120E030E040E85FE30E94EF1D882329
:100C400009F44DC06394862D90E0841595050CF051
:100C500053C0672D70E0882777FD8095982F0E94FC
:100C6000891EA80197010E943D1F9B01AC01C5018F
:100C7000B4010E948A1D4B015C01C801B70120E04C
:100C800030E040E251E40E94F31D7B018C01C5017C
:100C9000B401A80197010E94F31D0E945B1E762EED
:100CA000D62A2D2C3324CC24DD24C801B70120E022
:100CB00030E040E85FE30E94EF1D882319F491E0E3
:100CC000C92ED12C2C283D28232809F0A3CFE09150
:100CD0000402F091050280E20995DD24A8CFE0919D
:100CE0000402F09105028EE209956394862D90E04E
:100CF000841595050CF4ADCF0F90CF91DF911F9126
:100D00000F91FF90EF90DF90CF90BF90AF909F90AA
:100D10008F907F906F905F904F903F902F900895AD
:100D2000E0910402F09105028DE099830995998183
:100D300076CFE0910402F09105028DE209955FCF34
:100D400053014201B7FAB094B7F8B09445CE0F2ED4
:100D5000F1E2EF2EF6EEFF2EF5EB0F2FF6E51F2F4B
:100D6000F02D3CCF0F2EF0E0EF2EF0E0FF2EF0E85C
:100D70000F2FFFE31F2FF02D31CF0F2EF0E0EF2EBE
:100D8000F0E0FF2EF0E20F2FF1E41F2FF02D26CF21
:100D90000F2EF0E0EF2EF0E0FF2EF8EC0F2FF2E434
:100DA0001F2FF02D1BCF0F2EF0E0EF2EF0E0FF2EC7
:100DB000FAE70F2FF4E41F2FF02D10CF0F2EF0E0E5
:100DC000EF2EF0E4FF2EFCE10F2FF6E41F2FF02DA5
:100DD00005CF0F2EF0E0EF2EF0E5FF2EF3EC0F2FF6
:100DE000F7E41F2FF02DFACE0F2EF0E0EF2EF4E2F5
:100DF000FF2EF4E70F2FF9E41F2FF02DEFCE0F2E6B
:100E0000F0E8EF2EF6E9FF2EF8E10F2FFBE41F2F9D
:100E1000F02DE4CE0F2EF0E2EF2EFCEBFF2EFEEBDA
:100E20000F2FFCE41F2FF02DD9CE0F2EF8E2EF2E5E
:100E3000FBE6FF2EFEE60F2FFEE41F2FF02DCECE99
:100E40000F2EF9EFEF2EF2E0FF2EF5E10F2FF0E578
:100E50001F2FF02DC3CE0F2EF7EBEF2EF3E4FF2E56
:100E6000FAEB0F2FF1E51F2FF02DB8CE0F2EF5EA7C
:100E7000EF2EF4EDFF2EF8E60F2FF3E51F2FF02DE8
:100E8000ADCE0F2EF7EEEF2EF4E8FF2EF1E10F2F8F
:100E9000F5E51F2FF02DA2CEFF920F931F93F82E92
:100EA000092FE92FE295EF70F0E0EC5AFF4F149113
:100EB0001A3009F437C0E0910402F0910502812F45
:100EC0000995E02FF0E0EF70F070EC5AFF4F1491AD
:100ED0001A3079F1E0910402F0910502812F099511
:100EE000EF2DE295EF70F0E0EC5AFF4F14911A30BD
:100EF00039F1E0910402F0910502812F0995EF2D5F
:100F0000F0E0EF70F070EC5AFF4F14911A30F9F0E6
:100F1000E0910402F0910502812F09951F910F9134
:100F2000FF900895E0910402F09105028DE009958B
:100F3000C2CFE0910402F09105028DE00995CACF7D
:100F4000E0910402F09105028DE00995D2CFE09185
:100F50000402F09105028DE00995DACFCF92DF927D
:100F6000EF92FF920F931F93DF93CF930F92CDB722
:100F7000DEB77B018C01AA27BB276C01ED2DE29522
:100F8000EF70F0E0EC5AFF4F94919A3009F482C070
:100F9000E0910402F0910502892F0995ED2DF0E012
:100FA000EF70F070EC5AFF4F94919A3009F47BC0C7
:100FB000E0910402F0910502892F0995EC2DE2954C
:100FC000EF70F0E0EC5AFF4F94919A3009F474C03E
:100FD000E0910402F0910502892F0995EC2DF0E0D3
:100FE000EF70F070EC5AFF4F94919A3009F46DC095
:100FF000E0910402F0910502892F0995DE2C0F2D56
:10100000EF2DE295EF70F0E0EC5AFF4F14911A309B
:1010100009F464C0E0910402F0910502812F099562
:10102000E02FF0E0EF70F070EC5AFF4F14911A309F
:1010300009F45BC0E0910402F0910502812F09954B
:10104000ED2DE295EF70F0E0EC5AFF4F14911A305D
:1010500009F452C0E0910402F0910502812F099534
:10106000ED2DF0E0EF70F070EC5AFF4F14911A3054
:1010700009F449C0E0910402F0910502812F09951D
:101080000F90CF91DF911F910F91FF90EF90DF9024
:10109000CF900895E0910402F09105028DE09983CC
:1010A0000995998175CFE0910402F09105028DE0D8
:1010B0009983099599817CCFE0910402F091050212
:1010C0008DE099830995998183CFE0910402F09195
:1010D00005028DE09983099599818ACFE0910402F8
:1010E000F09105028DE0099595CFE0910402F09111
:1010F00005028DE009959ECFE0910402F091050272
:101100008DE00995A7CFE0910402F09105028DE0F2
:101110000995B0CF7F928F929F92AF92BF92CF925C
:10112000DF92EF92FF920F931F93DF93CF930F9273
:10113000CDB7DEB77988CA88DB88A4E1EA2EF12C26
:10114000EC0EFD1E7720B9F0F6010894C11CD11CED
:1011500014911532A9F0112309F4AAC01A3009F428
:1011600056C0E0910402F0910502812F09954701D4
:101170007401772049F7F60111916F01153259F783
:101180007720C9F0F6010894C11CD11C14911436C3
:10119000B9F0183709F453C0133609F43FC04701BA
:1011A0001A3009F445C0E0910402F0910502812F44
:1011B00009957401DECFF60111916F01143649F7DC
:1011C00032E0832E912C8E0C9F1CF701E080F18081
:1011D000FF200CF47EC0F0E1EF16F7E2FF0608F006
:1011E00083C088EEE81683E0F80608F083C0E4E6E2
:1011F000EE16F10408F084C0FAE0EF16F10408F0EE
:1012000082C001E010E05AE0A52EB12C3BC0E09175
:101210000402F09105028DE00995A3CFF2E08F2E34
:10122000912C8E0C9F1CF70110811A3009F0BBCF56
:10123000E0910402F09105028DE00995B4CFE2E05F
:101240008E2E912C8E0C9F1CF701E080F18000E027
:1012500010E170E1A72EB12C15C0E0910402F091CD
:101260000502892F0995C801B5010E94A01FFB0145
:101270006115710509F47CCFC701B8010E94A01F58
:101280007C018F01C701B8010E94A01FE62FF0E08A
:10129000EF70F070EC5AFF4F94919A30F1F6E091B4
:1012A0000402F09105028DE0998309959981D5CFCB
:1012B00080E090E00F90CF91DF911F910F91FF9010
:1012C000EF90DF90CF90BF90AF909F908F907F90E6
:1012D0000895F094E194F108F394E0910402F09100
:1012E00005028DE2099577CF00E117E26AE0A62EAC
:1012F000B12CC8CF08EE13E04AE0A42EB12CC2CF27
:1013000004E610E0F9CF0AE010E0F6CFDC98DD98B3
:10131000DE98DF98282F84FDDC9A25FDDD9A26FDD6
:10132000DE9A87FD1FC0DB9A84EF91E0FC013197C4
:10133000F1F7DB980197F1F7DC98DD98DE98DF98FC
:1013400020FDDC9A21FDDD9A22FDDE9A23FDDF9A45
:10135000DB9A84EF91E0FC013197F1F7DB9801977C
:10136000F1F70895DF9ADFCFDB98DA98DC9ADD9AFF
:10137000DF98DE98DB9A84EF91E0FC013197F1F77A
:10138000DB98E0EDF7E03197F1F7DB9AFC0131975C
:10139000F1F7DB98FC013197F1F7DB9AFC0131970B
:1013A000F1F7DB98FC013197F1F7DC98DB9AFC014F
:1013B0003197F1F7DB980197F1F70895E8E8F3E149
:1013C0003197F1F7DB98DA98DC98DD98DE98DF98B2
:1013D000282F84FDDC9A25FDDD9A26FDDE9A87FD07
:1013E0001FC0DB9A84EF91E0FC013197F1F7DB98A5
:1013F0000197F1F7DC98DD98DE98DF9820FDDC9A04
:1014000021FDDD9A22FDDE9A23FDDF9ADB9A84EF2F
:1014100091E0FC013197F1F7DB980197F1F708951E
:10142000DF9ADFCFEAEFF0E03197F1F7DB98DA9A55
:10143000DC98DD98DE98DF98282F84FDDC9A25FD66
:10144000DD9A26FDDE9A87FD1FC0DB9A84EF91E0CE
:10145000FC013197F1F7DB980197F1F7DC98DD9803
:10146000DE98DF9820FDDC9A21FDDD9A22FDDE9AD0
:1014700023FDDF9ADB9A84EF91E0FC013197F1F7CD
:10148000DB980197F1F70895DF9ADFCF88E893E1C1
:101490000197F1F7DB98DA98DC98DD98DE98DF9811
:1014A000DB9A84EF91E0FC013197F1F7DB98FC01C6
:1014B0003197F1F7DC98DD98DE98DF98DC9ADB9ABB
:1014C000FC013197F1F7DB980197F1F7089588E86F
:1014D00093E10197F1F7DB98DA98DC98DD98DE98D4
:1014E000DF98DB9A84EF91E0FC013197F1F7DB980C
:1014F000FC013197F1F7DC98DD98DE98DF98DD9AF2
:10150000DB9AFC013197F1F7DB980197F1F7089529
:10151000DB01880F991F880F991F880F991F805C26
:10152000E8E8F3E13197F1F7DB98DA98DC98DD9899
:10153000DE98DF98282F84FDDC9A25FDDD9A26FDB4
:10154000DE9A87FD5CC0DB9A84EF91E0FC01319765
:10155000F1F7DB980197F1F7DC98DD98DE98DF98DA
:1015600020FDDC9A21FDDD9A22FDDE9A23FDDF9A23
:10157000DB9A84EF91E0FC013197F1F7DB9801975A
:10158000F1F740E050E0EAEFF0E064EF71E021C0F5
:10159000DB9ACB010197F1F7DB98CB010197F1F7CB
:1015A000DC98DD98DE98DF9820FDDC9A21FDDD9A3D
:1015B00022FDDE9A23FDDF9ADB9ACB010197F1F73A
:1015C000DB98CB010197F1F74F5F5F4F4830510532
:1015D000A9F03D91CF010197F1F7DB98DA9ADC98F9
:1015E000DD98DE98DF98232F34FDDC9A25FDDD9A07
:1015F00026FDDE9A37FFCCCFDF9ACACF0895DF9A57
:10160000A2CFD39AD29AD49AD59AD69AD79ADB985F
:10161000DA98DC9ADD9ADF98DE98DB9A84EF91E025
:10162000FC013197F1F7DB98E0EDF7E03197F1F746
:10163000DB9AFC013197F1F7DB98FC013197F1F768
:10164000DB9AFC013197F1F7DB98FC013197F1F758
:10165000DC98DB9AFC013197F1F7DB98FC013197BC
:10166000F1F728E833E1F9013197F1F7DB98DA98DF
:10167000DC98DD98DE98DF98DD9ADB9AFC013197E3
:10168000F1F7DB98FC013197F1F7DC98DD98DE98F3
:10169000DF98DF9ADB9AFC013197F1F7DB98FC01C8
:1016A0003197F1F7F9013197F1F7DB98DA98DC9887
:1016B000DD98DE98DF98DB9AFC013197F1F7DB9833
:1016C000FC013197F1F7DC98DD98DE98DF98DE9A1F
:1016D000DF9ADB9AFC013197F1F7DB98FC01319737
:1016E000F1F7F9013197F1F7DB98DA98DC98DD989A
:1016F000DE98DF98DB9AFC013197F1F7DB98FC016B
:101700003197F1F7DC98DD98DE98DF98DC9ADB9A68
:10171000FC013197F1F7DB980197F1F708958F926B
:101720009F92AF92BF92CF92DF92EF92FF920F9370
:101730001F93DF93CF93CDB7DEB760970FB6F894C2
:10174000DEBF0FBECDBF7C0182E19AE00E94E802BD
:10175000F70101900020E9F73197EE19FF09709722
:1017600008F476C05E010894A11CB11CC501B70144
:101770004FE050E00E9432228C0148E8842E43E181
:10178000942EC4010197F1F7DB98DA98DC98DD9884
:10179000DE98DF98DF9ADB9A34EFC32E31E0D32E48
:1017A000C6010197F1F7DB98C6010197F1F7DC98C4
:1017B000DD98DE98DF98DB9AC6010197F1F7DB9898
:1017C000C6010197F1F7C5010E9407030031110519
:1017D00060F180E190E0E80EF91EC501B7014FE02D
:1017E00050E00E943222C4010197F1F7DB98DA98A9
:1017F000DC98DD98DE98DF98DE9ADF9ADB9AC601E6
:101800000197F1F7DB98C6010197F1F7DC98DD98B5
:10181000DE98DF98DB9AC6010197F1F7DB98C601E5
:101820000197F1F7C5010E94070360960FB6F8947F
:10183000DEBF0FBECDBFCF91DF911F910F91FF9003
:10184000EF90DF90CF90BF90AF909F908F900895D2
:10185000C7010E940703E9CF613009F46FC062300D
:101860000CF472C0623021F0633009F434C0089582
:101870008C56E8E8F3E13197F1F7DB98DA98DC98D9
:10188000DD98DE98DF98282F84FDDC9A25FDDD9A0F
:1018900026FDDE9A87FD56C0DB9A84EF91E0FC01BD
:1018A0003197F1F7DB980197F1F7DC98DD98DE9836
:1018B000DF9820FDDC9A21FDDD9A22FDDE9A23FDD2
:1018C000DF9ADB9A84EF91E0FC013197F1F7DB9826
:1018D0000197F1F708958C52E8E8F3E13197F1F7B9
:1018E000DB98DA98DC98DD98DE98DF98282F84FD65
:1018F000DC9A25FDDD9A26FDDE9A87FD21C0DB9A64
:1019000084EF91E0FC013197F1F7DB980197F1F753
:10191000DC98DD98DE98DF9820FDDC9A21FDDD9AC9
:1019200022FDDE9A23FDDF9ADB9A84EF91E0FC0131
:101930003197F1F7DB980197F1F70895805499CF2B
:10194000DF9ADDCFDF9AA8CF61110895805891CF3B
:1019500090932E0280932D0270932C0260932B02A1
:101960000895E0912B02F0912C0209958F5F9F4F13
:10197000C1F70895CF92DF92EF92FF920F931F93DA
:10198000CF93DF936C017B01FC0110828C01C0E0DE
:10199000D0E0E0912B02F0912C0209959C01FFEF21
:1019A0008F3F9F0799F080978036910548F4CE15B8
:1019B000DF057CF7F80121938F0121961082E9CF92
:1019C0002D30310519F02A30310519F7F6018081E3
:1019D000882361F420E030E0C901DF91CF911F91AD
:1019E0000F91FF90EF90DF90CF9008952FEF3FEF92
:1019F000F3CF0F931F938C0180912D0290912E02B3
:101A00000E94E802C8010E9407038AE00E94ED02DA
:101A100020E030E042E350E0CA010197F1F72F5F88
:101A20003F4F87E220313807B9F78FEF9FEF1F91C3
:101A30000F910895CF92DF92FF920F931F93CF9350
:101A4000DF936C01EB01142FFB0101900020E9F7FB
:101A50003197CF01861B970B0E942020082FF92E6B
:101A6000CE010E94C62248814423E1F0802F9F2DA1
:101A70009C01F90141134193219648814423D1F7F8
:101A80001082C601602F7F2D0E942B22802F9F2D58
:101A90000E94CD20DF91CF911F910F91FF90DF9099
:101AA000CF900895802F9F2D9C01F901E9CF8F924F
:101AB0009F92AF92BF92CF92DF92EF92FF920F93DD
:101AC0001F93CF93DF93F82EE92E4B01A42ED22E35
:101AD000A82FB92FFD0101900020E9F73197CF0120
:101AE0008A1B9B0B0E942020C82EB92E6F2D7E2DA5
:101AF0000E942B228C2D9B2DB8010E942622BC0116
:101B0000ED2CFF24E7FCF0941E141F0464F4C1E0E4
:101B1000D0E080E090E0B8010E942622BC0121962E
:101B2000EC16FD06B4F76115710571F0DB010D903F
:101B30000020E9F71197A61BB70B8A2D992787FD7F
:101B40009095A817B907B0F0F40110828C2D9B2D49
:101B50000E94CD2021E030E0C901DF91CF911F919B
:101B60000F91FF90EF90DF90CF90BF90AF909F903C
:101B70008F900895C4010E942B228C2D9B2D0E94D2
:101B8000CD2020E030E0E8CFEF92FF920F931F933B
:101B9000DF93CF93CDB7DEB7E2970FB6F894DEBFF1
:101BA0000FBECDBF7C0180912D0290912E020E942C
:101BB000E80200D000D000D0EDB7FEB731968E011C
:101BC0000F5F1F4FADB7BEB712961C930E931197C0
:101BD00080E690E093838283F582E4820E94FB2278
:101BE0008DB79EB706960FB6F8949EBF0FBE8DBFF9
:101BF000C8010E94070320E030E042E350E0CA0140
:101C00000197F1F72F5F3F4F93E128383907B9F774
:101C10008FEF9FEFE2960FB6F894DEBF0FBECDBFF9
:101C2000CF91DF911F910F91FF90EF9008950F9347
:101C30001F938C0180912D0290912E020E94E80248
:101C400000D000D00F92EDB7FEB7319681E0ADB76E
:101C5000BEB711968C9385E690E0928381831483BE
:101C600003830E948A0820E030E00F900F900F90CD
:101C70000F900F9042E350E0CA010197F1F72F5FF8
:101C80003F4FB3E128383B07B9F78FEF9FEF1F9124
:101C90000F91089580912D0290912E020E94E802EA
:101CA0008CE690E00E9407038AE00E94ED0220E0AB
:101CB00030E042E350E0CA010197F1F72F5F3F4F58
:101CC00087E220313807B9F70895AF92BF92CF92DB
:101CD000DF92EF92FF920F931F93DF93CF93CDB7D5
:101CE000DEB7C85CD0400FB6F894DEBF0FBECDBFE4
:101CF0008C017B0180912D0290912E020E94E802BE
:101D0000C8010E9407038AE00E94ED0220E030E053
:101D100042E350E0CA010197F1F72F5F3F4F87E29E
:101D200020313807B9F720E030E042E350E0CA0143
:101D30000197F1F72F5F3F4FE7E220313E07B9F7F8
:101D4000C7010E94E802CC24DD245E010894A11C96
:101D5000B11C198200E010E07501E0912B02F091B6
:101D60002C0209959C01FFEF8F3F9F07A1F0809700
:101D70008036910550F4083C11057CF7F70121935A
:101D80007F010F5F1F4F1082E8CF2D30310519F012
:101D90002A30310511F78981882329F0C5010E9475
:101DA00007030E9488040894C11CD11CF8ECCF16CC
:101DB000D10479F6C853DF4F0FB6F894DEBF0FBEDB
:101DC000CDBFCF91DF911F910F91FF90EF90DF90EA
:101DD000CF90BF90AF9008958F929F92AF92BF9295
:101DE000CF92DF92EF92FF920F931F93DF93CF93E7
:101DF000CDB7DEB7CC52D1400FB6F894DEBF0FBEE0
:101E0000CDBF8C014B0180912D0290912E020E943A
:101E1000E802C8010E9407038AE00E94ED0220E068
:101E200030E042E350E0CA010197F1F72F5F3F4FE6
:101E300087E220313807B9F720E030E042E350E094
:101E4000CA010197F1F72F5F3F4FE3EC20353E07C2
:101E5000B9F7CC24DD245E010894A11CB11C1982C1
:101E600000E010E07501E0912B02F0912C02099541
:101E70009C01FFEF8F3F9F07A9F080978036910567
:101E800058F481E00C32180774F7F70121937F01B1
:101E90000F5F1F4F1082E7CF2D30310519F02A3028
:101EA000310509F789818823F1F40894C11CD11CFC
:101EB000F8ECCF16D10499F620E030E0C901C45DFA
:101EC000DE4F0FB6F894DEBF0FBECDBFCF91DF91CE
:101ED0001F910F91FF90EF90DF90CF90BF90AF9048
:101EE0009F908F900895C50166E770E00E9451228F
:101EF0000097D9F2C401B5010E942B222FEF3FEFCA
:101F0000DDCF8F929F92AF92BF92CF92DF92EF92EE
:101F1000FF920F931F93DF93CF93CDB7DEB7CA5FC6
:101F2000D0400FB6F894DEBF0FBECDBF4C018091FC
:101F30002D0290912E020E94E8028CE790E00E9410
:101F400007038AE00E94ED0220E030E042E350E027
:101F5000CA010197F1F72F5F3F4F87E22031380721
:101F6000B9F7CC24DD2483E3A82EB12CAC0EBD1E22
:101F70001BAA00E010E07501E0912B02F0912C0209
:101F800009959C01EFEF8F3F9E07A1F08097803667
:101F9000910550F4083C11057CF7F70121937F016E
:101FA0000F5F1F4F1082E8CF2D30310519F02A3016
:101FB000310511F78BA98823F1F40894C11CD11CB9
:101FC000F8ECCF16D104A1F620E030E0C901C650EC
:101FD000DF4F0FB6F894DEBF0FBECDBFCF91DF91BC
:101FE0001F910F91FF90EF90DF90CF90BF90AF9037
:101FF0009F908F900895C50165E870E00E9451227E
:102000000097D9F2F50101900020E9F73197CF014F
:102010008A199B090E942020F82EE92EB5010E9402
:102020002B228F2D9E2D6BE870E00E94262280E0EF
:1020300090E06BE870E00E942622BC01009749F016
:10204000FC0101900020E9F73197E81BF90BF297AA
:1020500030F019828F2D9E2D0E94CD20AECF8E01A3
:102060000F5F1F4FC8010E942B228F2D9E2D0E94B3
:10207000CD20C401B8010E942B2278942FEF3FEFAE
:10208000A5CF2F923F924F925F926F927F928F9245
:102090009F92AF92BF92CF92DF92EF92FF920F93F7
:1020A0001F93DF93CF93CDB7DEB7CA59D0400FB699
:1020B000F894DEBF0FBECDBF1C01C956DF4F798338
:1020C0006883C759D040C756DF4F59834883C959E1
:1020D000D04057FDD2C0442455246624772423E3FE
:1020E000822E912C8C0E9D1E92E3C92ED12CE09154
:1020F0002B02F0912C0209958F5F9F4FC1F78091C1
:102100002D0290912E020E94E80200D00F9221E051
:10211000EDB7FEB7218384E790E0938382830E942A
:102120008A080F900F900F90C1010E94070300D002
:102130000F9221E0EDB7FEB7218381E790E0938312
:1021400082830E948A080F900F900F90C956DF4F2C
:1021500088819981C759D0400E940703E0912D02E0
:10216000F0912E028AE1099520E030E0C601019746
:10217000F1F72F5F3F4F95E720333907B9F7AA24CE
:10218000BB2480E593EC0197F1F71BAA00E010E077
:102190007401E0912B02F0912C0209959C01EFEF64
:1021A0008F3F9E07A1F080978036910550F404364A
:1021B00011057CF7F70121937F010F5F1F4F1082FC
:1021C000E8CF2D30310519F02A30310511F78BA9F0
:1021D000882309F06FC00894A11CB11C92E3A916D2
:1021E000B10479F6161417040CF047C0AA24BB24D6
:1021F00020E030E0C6010197F1F72F5F3F4FE3E1A8
:1022000028383E07B9F71BAA00E010E07401E091FE
:102210002B02F0912C0209959C01FFEF8F3F9F0745
:10222000A1F080978036910550F4043611057CF7B3
:10223000F70121937F010F5F1F4F1082E8CF2D30F0
:10224000310519F02A30310511F78BA9882309F0DF
:102250007CC00894A11CB11CF8E2AF16B10441F691
:102260000894411C511CC756DF4F88819981C95978
:10227000D040841595050CF03ACF66247724C3012D
:10228000C656DF4F0FB6F894DEBF0FBECDBFCF915D
:10229000DF911F910F91FF90EF90DF90CF90BF9053
:1022A000AF909F908F907F906F905F904F903F90F6
:1022B0002F900895C4016DE870E00E9451220097AC
:1022C000E1F6C40163E970E00E945122009709F42D
:1022D00082CFF40101900020E9F73197CF018819EE
:1022E00099090E942020182F092FB4010E942B2247
:1022F000812F902F69E970E00E94262280E090E013
:1023000069E970E00E942622BC01009751F0FC01AF
:1023100001900020E9F73197E81BF90BF29708F4D8
:10232000D4C01982812F902F0E94CD20CE0101961A
:102330000E9425213C01C756DF4F88819981C959E8
:10234000D040892B09F04ECF9ACFC4016BE970E0E1
:102350000E945122009709F47CCFF40101900020E3
:10236000E9F73197CF01881999090E942020182F89
:10237000092FB4010E942B22812F902F63EA70E075
:102380000E94262280E090E063EA70E00E9426220C
:10239000BC01009749F0FC0101900020E9F731975A
:1023A000E81BF90BF29730F01982812F902F0E94D1
:1023B000CD204FCFCE0101960E942B22812F902F4E
:1023C0000E94CD20CE0101960E94252186159705F9
:1023D00009F03FCFF40101900020E9F73197CF01D8
:1023E000881999090E942020F82EE92EB4010E9434
:1023F0002B228F2D9E2D63EA70E00E94262200E0A2
:1024000010E080E090E063EA70E00E942622BC01C8
:102410000F5F1F4F08301105A1F7009751F0FC0125
:1024200001900020E9F73197E81BF90BF29708F4C7
:1024300055C019828F2D9E2D0E94CD20F401019050
:102440000020E9F73197CF01881999090E942020CF
:10245000F82EE92EB4010E942B228F2D9E2D63EAC7
:1024600070E00E94262200E010E080E090E063EA45
:1024700070E00E942622BC010F5F1F4F063011053D
:10248000A1F7009749F0FC0101900020E9F731978E
:10249000E81BF90BF29730F019828F2D9E2D0E94C8
:1024A000CD20D7CECE0101960E942B228F2D9E2DBE
:1024B0000E94CD20CE0101960E942521892B09F092
:1024C000C8CE66246A94762CDACECE0101960E949C
:1024D0002B22812F902F0E94CD2028CFCE01019654
:1024E0000E942B228F2D9E2D0E94CD20CE01019681
:1024F0000E942521892B09F0A1CFE3CF8F929F92D3
:10250000AF92BF92CF92DF92EF92FF920F931F9301
:10251000DF93CF93CDB7DEB7C059D1400FB6F89453
:10252000DEBF0FBECDBF8C014B01E0912B02F091BD
:102530002C0209958F5F9F4FC1F780912D029091DA
:102540002E020E94E80200D000D00F92EDB7FEB735
:10255000319681E0ADB7BEB711968C938EE790E0CF
:1025600092838183148303830E948A0820E030E0F1
:102570000F900F900F900F900F9042E350E0CA0120
:102580000197F1F72F5F3F4FB7E220313B07B9F7D3
:10259000CC24DD245E010894A11CB11C198200E04A
:1025A00010E07501E0912B02F0912C0209959C013D
:1025B000EFEF8F3F9E07A1F080978036910550F492
:1025C000083C11057CF7D7012D937D010F5F1F4F4C
:1025D0001C92E8CF2D30310519F02A30310511F762
:1025E00089818823F1F40894C11CD11CB8ECCB1666
:1025F000D104A1F620E030E0C901C057DE4F0FB68C
:10260000F894DEBF0FBECDBFCF91DF911F910F9128
:10261000FF90EF90DF90CF90BF90AF909F908F9002
:102620000895C50165EA70E00E9451220097D9F231
:10263000C5016BEA70E00E945122009709F41CC1A9
:10264000EDECF0E08E0E9F1E81E0D4018C93E3E36D
:10265000FFEF8E0E9F1EF50101900020E9F73197E4
:10266000CF018A199B090E942020F82EE92EB5017E
:102670000E942B228F2D9E2D63EA70E00E9426225D
:1026800080E090E063EA70E00E942622BC0100979F
:1026900059F0FC0101900020E9F73197E81BF90B94
:1026A000E85CFF4F08F4D0C08E0107531F4FD801DC
:1026B0001C928F2D9E2D0E94CD20F80101900020AC
:1026C000E9F73197CF01801B910B0E942020F82E53
:1026D000E92EC8010E94C622F8014081442309F472
:1026E000C6C08F2D9E2D9C01D901F801423209F000
:1026F0004D93319640814423C9F71C92C8016F2D38
:102700007E2D0E942B228F2D9E2D0E94CD20C40154
:1027100080569F4FB8010E942B22F50101900020A6
:10272000E9F73197CF018A199B090E942020F82EE2
:10273000E92EB5010E942B228F2D9E2D63EA70E0B9
:102740000E94262280E090E063EA70E00E94262248
:1027500080E090E063EA70E00E94262280E090E052
:1027600063EA70E00E942622BC01009759F0FC0148
:1027700001900020E9F73197E81BF90BE85CFF4F67
:1027800008F46DC0D8011C928F2D9E2D0E94CD2083
:10279000F80101900020E9F73197CF01801B910BE0
:1027A0000E942020F82EE92EC8010E94C622F801BE
:1027B0004081442309F473C08F2D9E2D9C01D901C3
:1027C000F801423209F04D93319640814423C9F714
:1027D0001C92C8016F2D7E2D0E942B228F2D9E2DC5
:1027E0000E94CD20C4018C549F4FB8010E942B221F
:1027F000198200E010E07501E0912B02F0912C02AB
:1028000009959C01FFEF8F3F9F07A1F080978036CD
:10281000910550F4083C11057CF7D7012D937D01FB
:102820000F5F1F4F1C92E8CF2D30310519F02A3071
:10283000310511F789818823D9F2C401B5010E94BD
:102840002B222FEF3FEFD8CE8E0107531F4FC80129
:102850000E942B228F2D9E2D0E94CD202ECFC801AD
:102860000E942B228F2D9E2D0E94CD2091CF8F2D47
:102870009E2D9C01D90141CFC50164EB70E00E94FF
:102880005122009709F4E7CE8DEC90E0880E991E56
:10289000D4011C92E3E3FFEF8E0E9F1EDCCE8F2D42
:1028A0009E2D9C01D90194CF4F925F926F927F929F
:1028B0008F929F92AF92BF92CF92DF92EF92FF9250
:1028C0000F931F93DF93CF93CDB7DEB7CE55D14093
:1028D0000FB6F894DEBF0FBECDBF2C01809106026B
:1028E000882309F097C180910702882309F095C1D8
:1028F00080910802882309F093C1809109028823FE
:1029000009F091C180910A02882309F071C1809178
:102910000B02882309F08DC180910C02882309F0F5
:102920008BC180910D02882309F089C180910E022C
:10293000882309F087C180910F02882309F085C19F
:1029400080911002882309F083C1809111028823AD
:1029500009F06CC180911202882309F07CC180913A
:102960001302882309F07AC180911402882309F0A8
:1029700078C180912D0290912E020E94E8028FEB87
:1029800090E00E9407038AE00E94ED0220E030E020
:1029900042E350E0CA010197F1F72F5F3F4F87E212
:1029A00020313807B9F720E030E042E350E0CA01B7
:1029B0000197F1F72F5F3F4FE7E220313E07B9F76C
:1029C000CC24DD2456E0652E52E0752E43E3A42E80
:1029D000B12CAC0EBD1E4E010894811C911C1BAA8B
:1029E00000E010E07501E0912B02F0912C020995B6
:1029F0009C01FFEF8F3F9F07A9F0809780369105DC
:102A000058F481E00C32180774F7F70121937F0125
:102A10000F5F1F4F1082E7CF2D30310519F02A309C
:102A2000310509F78BA9882309F06DC00894C11CF2
:102A3000D11CF8ECCF16D10494F2809106028823C1
:102A400009F0E8C080910702882309F0E6C0809170
:102A50000802882309F0E4C080910902882309F064
:102A6000E2C080910A02882309F0C2C080910B0263
:102A7000882309F0DEC080910C02882309F0DCC0B5
:102A800080910D02882309F0DAC080910E0288231C
:102A900009F0D8C080910F02882309F0D6C0809138
:102AA0001002882309F0D4C080911102882309F014
:102AB000BDC080911202882309F0CDC0809113021D
:102AC000882309F0CBC080911402882309F0C9C083
:102AD00020E030E0C901C25ADE4F0FB6F894DEBFE5
:102AE0000FBECDBFCF91DF911F910F91FF90EF905F
:102AF000DF90CF90BF90AF909F908F907F906F901E
:102B00005F904F900895C50164EB70E00E945122E0
:102B1000009709F48BCFF50101900020E9F7319778
:102B2000CF018A199B090E942020182F092FB50177
:102B30000E942B22812F902F63EA70E00E942622B0
:102B4000BC01009751F0FC0101900020E9F731979A
:102B5000E81BF90BF29708F443C01982812F902FDC
:102B60000E94CD20F40101900020E9F73197CF01B8
:102B7000881999090E942020182F092FB4010E945A
:102B80002B22812F902F69E970E00E94262280E09D
:102B900090E069E970E00E942622BC01009749F0AC
:102BA000FC0101900020E9F73197E81BF90BF2973F
:102BB00078F01982812F902F0E94CD20C4010E94AD
:102BC0002521F30181933F0131E0C32ED12C07CFA2
:102BD000C4010E942B22812F902F0E94CD20EECF86
:102BE000C4010E942B22812F902F0E94CD20BACFAA
:102BF00004E010E0992787FD9095B2010E947E12B3
:102C0000F801EA5FFD4F8081282F332727FD30959B
:102C1000108260CF00E010E0EDCF01E010E0EACFDD
:102C200002E010E0E7CF03E010E0E4CF0BE010E0BB
:102C3000E1CF05E010E0DECF06E010E0DBCF07E0FB
:102C400010E0D8CF08E010E0D5CF09E010E0D2CFF7
:102C50000AE010E0CFCF0CE010E0CCCF0DE010E0A8
:102C6000C9CF0EE010E0C6CF8F929F92AF92BF9275
:102C7000CF92DF92EF92FF920F931F93DF93CF9348
:102C8000CDB7DEB7C659D0400FB6F894DEBF0FBE41
:102C9000CDBF4C0180912D0290912E020E94E8023E
:102CA00087EC90E00E9407038AE00E94ED0220E09A
:102CB00030E042E350E0CA010197F1F72F5F3F4F48
:102CC00087E220313807B9F7CC24DD2463E3A62E50
:102CD000B12CAC0EBD1E1BAA00E010E07501E09106
:102CE0002B02F0912C0209959C01EFEF8F3F9E077C
:102CF000A1F080978036910550F4043611057CF7D9
:102D0000F70121937F010F5F1F4F1082E8CF2D3015
:102D1000310519F02A30310511F78BA98823F1F418
:102D20000894C11CD11C38ECC316D104A1F62FEFB6
:102D30003FEFC901CA56DF4F0FB6F894DEBF0FBE92
:102D4000CDBFCF91DF911F910F91FF90EF90DF905A
:102D5000CF90BF90AF909F908F900895C50160ED88
:102D600070E00E9451220097D9F2C50166ED70E033
:102D70000E945122B82EA92EA82FB92FFD01019033
:102D80000020E9F73197CF018A1B9B0B0E9420207E
:102D9000182F092F6B2D7A2D0E942B22812F902F17
:102DA00063EA70E00E94262280E090E063EA70E02F
:102DB0000E942622BC01009749F0FC0101900020EE
:102DC000E9F73197E81BF90BF29740F01982812F50
:102DD000902F0E94CD202FEF3FEFABCF7E010894C4
:102DE000E11CF11CC7010E942B22812F902F0E9411
:102DF000CD20C7010E9425216C018B2D9A2DB70192
:102E000042E322E003EA10E00E94570D892B09F00B
:102E10008ECFC7010E942521BC01009709F487CFFE
:102E2000F4019183808384E690E09C01C29EC001FE
:102E3000C39E900DD29E900D11240E94B41F9B0141
:102E400078CF8F929F92AF92BF92CF92DF92EF9204
:102E5000FF920F931F93DF93CF93CDB7DEB7A39766
:102E60000FB6F894DEBF0FBECDBFE82EC92E5B01B2
:102E7000A82FB92FFD0101900020E9F73197CF016C
:102E80008A1B9B0B0E942020182F092F6E2D7C2D52
:102E90000E942B22812F902F6BE870E00E94262247
:102EA000BC01009749F0FC0101900020E9F731973F
:102EB000E81BF90B3F97D8F01E82812F902F0E94BC
:102EC000CD2020E030E0C901A3960FB6F894DEBF14
:102ED0000FBECDBFCF91DF911F910F91FF90EF906B
:102EE000DF90CF90BF90AF909F908F900895F6E0C5
:102EF0008F2E912C8C0E9D1EC4010E942B22812F9F
:102F0000902F0E94CD20AE2DBC2DFD010190002000
:102F1000E9F73197CF018A1B9B0B0E942020182FC5
:102F2000092F6E2D7C2D0E942B22812F902F6BE874
:102F300070E00E94262280E090E06BE870E00E9442
:102F40002622BC01009749F0FC0101900020E9F71E
:102F50003197E81BF90B3F9740F01D8A812F902F86
:102F60000E94CD2020E030E0AECFE5E1CE2ED12C86
:102F7000CC0EDD1EC6010E942B22812F902F0E94B5
:102F8000CD20C4017E010894E11CF11CB70145E08D
:102F900020E009ED10E00E94570DC7010E94252195
:102FA000F5018383C401B70145E021E00E94570D7C
:102FB000C7010E942521F5018483C401B70145E0C2
:102FC00022E00E94570DC7010E942521F50185834B
:102FD000C601B70145E020E009E910E00E94570D65
:102FE000C7010E942521F5018083C601B70145E094
:102FF00021E00E94570DC7010E942521F501818320
:10300000C601B70145E022E00E94570DC7010E94AA
:103010002521F50182832FEF3FEF55CF6F927F92ED
:103020008F929F92AF92BF92CF92DF92EF92FF92D8
:103030000F931F93DF93CF93CDB7DEB7C455D14025
:103040000FB6F894DEBF0FBECDBF4C0180912D02AC
:1030500090912E020E94E8028CE790E00E94070304
:103060008AE00E94ED0220E030E042E350E0CA0135
:103070000197F1F72F5F3F4F87E220313807B9F70B
:10308000CC24DD240DE8A02EB12CAC0EBD1E1BE51A
:10309000612E712C6C0E7D1EF501108200E010E097
:1030A0007501E0912B02F0912C0209959C01FFEF34
:1030B0008F3F9F07A1F080978036910550F4083C20
:1030C00011057CF7F70121937F010F5F1F4F1082DD
:1030D000E8CF2D30310519F02A30310511F7F5010F
:1030E0008081882331F50894C11CD11CF8ECCF16DF
:1030F000D10491F68BED90E00E9407030E948804B2
:1031000020E030E0C901CC5ADE4F0FB6F894DEBFA4
:103110000FBECDBFCF91DF911F910F91FF90EF9028
:10312000DF90CF90BF90AF909F908F907F906F90E7
:103130000895C50165E870E00E945122009799F258
:10314000F50101900020E9F73197CF018A199B0919
:103150000E942020F82EE92EB5010E942B228F2DEF
:103160009E2D6BE870E00E94262280E090E06BE8E4
:1031700070E00E942622BC01009749F0FC010190FA
:103180000020E9F73197E81BF90BF29738F0F301CB
:1031900010828F2D9E2D0E94CD20A5CF8E01055A25
:1031A0001F4FC8010E942B228F2D9E2D0E94CD20E3
:1031B000CE010196B8010E942B2278945E010894FA
:1031C000A11CB11CF50101900020E9F73197CF0156
:1031D0008A199B090E942020182F092FB5010E94EF
:1031E0002B22812F902F63EA70E00E942622BC01DF
:1031F000009749F0FC0101900020E9F73197E81BA6
:10320000F90B7E9740F01F8E812F902F0E94CD20CA
:1032100020E030E077CFBFE1CB2ED12CCC0EDD1EED
:10322000C6010E942B22812F902F0E94CD20F601F3
:1032300001900020E9F73197CF018C199D090E9478
:103240002020182F092FB6010E942B22812F902FAA
:1032500069ED70E00E942622BC01009749F0FC0154
:1032600001900020E9F73197E81BF90B7E9740F0B9
:103270001DAE812F902F0E94CD2020E030E042CF64
:10328000ADE3EA2EF12CEC0EFD1EC7010E942B22AD
:10329000812F902F0E94CD20CE01CE960E94252115
:1032A000F4018383C601B7014EE121E009ED10E08E
:1032B0000E94570D892B19F020E030E023CFC70181
:1032C0000E942521F4018483C601B7014EE122E06A
:1032D00009ED10E00E94570D892B71F7C7010E947C
:1032E0002521F4018583C501B6014EE121E003EA01
:1032F00010E00E94570D892BF9F6C601B7014EE187
:1033000020E009E910E00E94570D892BA9F6C701BA
:103310000E942521F4018083C601B7014EE121E01E
:103320000E94570D892B41F6C7010E942521F40107
:103330008183C601B7014EE122E00E94570D892B1F
:1033400009F0BACFC7010E942521F40182832FEF33
:103350003FEFD8CECF92DF92EF92FF920F931F9361
:10336000DF93CF93CDB7DEB7CE5CD0400FB6F894E5
:10337000DEBF0FBECDBF0E94C40260E875E280E0F0
:1033800090E00E94A8010E94010B87ED91E06CEA99
:1033900072E00E94A80C0E944A0E7E010894E11C73
:1033A000F11C81EAC82ED12CCC0EDD1E02E310E008
:1033B000C7010E945414009781F420E030E0C80156
:1033C0000197F1F72F5F3F4F8EE420323807B9F7AE
:1033D000C7010E945414009781F30E94170E0E94A7
:1033E000460AC7010E948F0B80E061E00E942C0C0E
:1033F000C6010E948F0BC60160EE70E042E050E013
:103400000E944110DACFA1E1B0E0E9E0FAE10C94CA
:10341000E91F3C017F876E876A01FC0117821682D3
:10342000838181FD03C06FEF7FEF6FC39E012F5F2C
:103430003F4F398B288BF3012381EE85FF8523FDD8
:10344000859123FF8191FF87EE87882309F45AC372
:10345000853251F4EE85FF8523FD859123FF81910F
:10346000FF87EE87853229F490E0B3010E949A220B
:10347000E2CF982F10E0882499241032B0F49B32C8
:1034800069F09C3228F4903251F0933271F40BC001
:103490009D3239F0903349F4116028C012601460F5
:1034A00025C0186023C0106121C017FD2AC0892FD4
:1034B00080538A3078F416FF06C0FAE09F9E902C65
:1034C0001124980E13C03AE0839E802C1124880E9C
:1034D00010620CC09E3221F416FD14C3106406C0A5
:1034E0009C3611F4106802C0983659F4EE85FF85B9
:1034F00023FD959123FF9191FF87EE87992309F092
:10350000BCCF892F8554833020F4812F8061905E59
:1035100007C0892F8556833008F09FC1812F8F7E89
:1035200086FD02C076E0972E6FE3F62EF8229536E0
:1035300019F4F0E4FF2A07C0963619F420E8F22ABD
:1035400002C091109A94F7FE0AC03BE3391518F4B3
:103550005CE3B52E02C0B92CB39427E009C047E064
:10356000491520F4BB2447E0942EF7CF292DBB2426
:10357000C60104969D878C87F601608171818281E6
:103580009381AE014F5F5F4F0B2D0E9443216C0171
:103590000981202E332400FF04C003FD02C01DE278
:1035A00009C0F1FE02C01BE205C0F2FC02C010E03F
:1035B00001C010E2C1018C709070892BB9F1112308
:1035C00011F483E001C084E0881510F088240AC05B
:1035D000881AF3FC07C080E290E0B3010E949A22AF
:1035E0008A94C9F7112329F0812F90E0B3010E943A
:1035F0009A2223FE03C00AE810E00EC00EE810E095
:103600000BC0E114F10409F0805290E0B3010E9474
:103610009A220F5F1F4F05C0EF2CFF24F0E1EF222D
:10362000FF24F8018491882361F714C1F7FE12C0CA
:10363000BC0C24FE04C08A81813309F4BA941B14A3
:103640001CF0BB24B3942DC0F8E0FB1550F538E016
:10365000B32E27C0F6FC25C0892D90E08C159D0562
:103660004CF02CEFC2162FEFD20624F030E8F32AEC
:1036700001C09A94992049F0E2E0F0E0EC0FFD1FC0
:10368000E90DF11D80818033A1F3F7FE0AC0B92C4A
:10369000B394892D90E0C816D90614F0992401C07E
:1036A0009C18F7FC03C025E030E009C01C141D0481
:1036B0001CF021E030E003C096012F5F3F4F112343
:1036C00011F02F5F3F4F992029F0892D90E001964E
:1036D000280F391F882D90E02817390714F0882407
:1036E00001C0821A4F2C5524C20189709070892B19
:1036F00039F008C080E290E0B3010E949A228A94D7
:103700008820C1F7112329F0812F90E0B3010E9496
:103710009A2243FE07C008C080E390E0B3010E94F4
:103720009A228A948820C1F7F7FE46C08601D7FE08
:1037300002C000E010E076010894E11CF11CE01AE0
:10374000F10A41E050E04C0F5D1FE40EF51E26012A
:103750004B185108892D90E0AA24BB24A81AB90A55
:103760005FEF0F3F150729F48EE290E0B3010E944E
:103770009A22C016D10634F0401651061CF4F70107
:10378000808101C080E3015010400894E11CF11CCD
:103790000A151B052CF090E0B3010E949A22E0CF9D
:1037A0000C151D0539F49A81963318F4953311F4EC
:1037B00024FE81E390E04BC08A81813309F00F7EC3
:1037C00090E0B3010E949A229920A1F08EE290E04D
:1037D000B3010E949A2212E0E1E0F0E0EC0FFD1F3D
:1037E000E10FF11D1F5F808190E0B3010E949A22DA
:1037F0009A9491F744FC03C085E690E002C085E40A
:1038000090E0B3010E949A22D7FC05C0C114D104F4
:1038100041F404FF06C0D094C194D108D3948DE242
:1038200001C08BE290E0B3010E949A2280E305C0C0
:103830008F5F26EF3FEFC20ED31E3AE0C316D104CE
:10384000BCF790E0B3010E949A22C601C096B30172
:103850000E949A22CC84DD8452C1933631F0933792
:1038600099F0933509F059C023C0F601808189830E
:103870005E010894A11CB11C22E030E0C20ED31EF0
:1038800021E0E22EF12C12C0F601A080B18016FDDD
:1038900003C06FEF7FEF02C0692D70E022E030E0DF
:1038A000C20ED31EC5010E9446227C011F7713C0A1
:1038B000F601A080B18016FD03C06FEF7FEF02C05C
:1038C000692D70E022E030E0C20ED31EC5010E94D7
:1038D0001B227C01106813FF07C01BC080E290E030
:1038E000B3010E949A228A94882D90E0E816F90686
:1038F000A8F30FC0F50117FD859117FF81915F01B6
:1039000090E0B3010E949A2281108A940894E10801
:10391000F108E114F10471F7F2C0943611F0993610
:1039200089F517FF08C0F60120813181428153815A
:1039300084E090E00AC0F601808191819C014427D7
:1039400037FD4095542F82E090E0C80ED91E9FE6C7
:10395000F92EF12257FF09C05095409530952195D9
:103960003F4F4F4F5F4F90E8F92ACA01B901AE01AE
:103970004F5F5F4F2AE030E00E941F23E82EE88966
:10398000EE1A41C0953721F41F7E2AE030E01CC0BA
:10399000197F9F3661F0903720F4983509F0B2C056
:1039A0000FC0903739F0983709F0ACC004C028E058
:1039B00030E00AC0106114FD146020E130E004C062
:1039C00014FD166020E132E017FF08C0F6016081A7
:1039D00071818281938144E050E008C0F6018081CA
:1039E0009181BC0180E090E042E050E0C40ED51E21
:1039F000AE014F5F5F4F0E941F23E82E5889E51AE2
:103A00008FE7F82EF122F6FE0BC08EEFF822E914B4
:103A100038F4F4FE07C0F2FC05C09FEEF92202C0A4
:103A20001E2D01C0192DF4FE0DC0FE01EE0DF11D7D
:103A30008081803319F4E9EEFE2208C01F5FF2FE98
:103A400005C003C08F2D867809F01F5F0F2DF3FC92
:103A500014C0F0FE0FC0181510F09E2C0BC09E2C49
:103A6000980C911A182D06C080E290E0B3010E94D4
:103A70009A221F5F1815C0F304C0181510F4811A9C
:103A800001C0882404FF0FC080E390E0B3010E94CE
:103A90009A2202FF1DC001FD03C088E790E00EC01E
:103AA00088E590E00BC0802F867891F001FF02C07E
:103AB0008BE201C080E2F7FC8DE290E0B3010E944E
:103AC0009A2206C080E390E0B3010E949A229A9461
:103AD000E914C0F3EA94E1E0F0E0EC0FFD1FEE0D15
:103AE000F11D808190E0B3010E949A22EE2091F7AF
:103AF00006C080E290E0B3010E949A228A94882056
:103B0000C1F799CCF30166817781CB016196E2E13F
:103B10000C9405205058BB27AA270ED070C161D144
:103B200030F066D120F031F49F3F11F41EF456C1FD
:103B30000EF4E095E7FB4CC1E92F72D180F3BA1780
:103B4000620773078407950718F071F49EF58AC120
:103B50000EF4E0950B2EBA2FA02D0B01B9019001A8
:103B60000C01CA01A0011124FF27591B99F0593FEC
:103B700050F4503E68F11A16F040A22F232F342F34
:103B80004427585FF3CF469537952795A795F04082
:103B90005395C9F77EF41F16BA0B620B730B840B97
:103BA000BAF09150A1F0FF0FBB1F661F771F881F4F
:103BB000C2F70EC0BA0F621F731F841F48F48795A7
:103BC00077956795B795F7959E3F08F0B3CF939596
:103BD000880F08F09927EE0F979587950895D4D010
:103BE00008F481E008950CD00AC102D140F0F9D068
:103BF00030F021F45F3F19F0EBC0511134C1EEC039
:103C00000FD198F39923C9F35523B1F3951B550BA5
:103C1000BB27AA2762177307840738F09F5F5F4F9F
:103C2000220F331F441FAA1FA9F333D00E2E3AF0E0
:103C3000E0E830D091505040E695001CCAF729D0FA
:103C4000FE2F27D0660F771F881FBB1F2617370749
:103C50004807AB07B0E809F0BB0B802DBF01FF2779
:103C600093585F4F2AF09E3F510568F0B1C0FBC0EA
:103C70005F3FECF3983EDCF3869577956795B795B3
:103C8000F7959F5FC9F7880F911D9695879597F9CE
:103C90000895E1E0660F771F881FBB1F6217730747
:103CA0008407BA0720F0621B730B840BBA0BEE1F5C
:103CB00088F7E0950895BCD088F09F5790F0B92F11
:103CC0009927B751A0F0D1F0660F771F881F991F71
:103CD0001AF0BA95C9F712C0B13081F0C3D0B1E083
:103CE0000895C0C0672F782F8827B85F39F0B93F93
:103CF000CCF3869577956795B395D9F73EF4909573
:103D00008095709561957F4F8F4F9F4F0895E894F0
:103D100009C097FB3EF490958095709561957F4F13
:103D20008F4F9F4F9923A9F0F92F96E9BB279395C1
:103D3000F695879577956795B795F111F8CFFAF4D1
:103D4000BB0F11F460FF1BC06F5F7F4F8F4F9F4F02
:103D500016C0882311F096E911C0772321F09EE860
:103D6000872F762F05C0662371F096E8862F70E0C6
:103D700060E02AF09A95660F771F881FDAF7880FA0
:103D80009695879597F90895990F0008550FAA0BF6
:103D9000E0E8FEEF16161706E807F907C0F012165E
:103DA0001306E407F50798F0621B730B840B950B61
:103DB00039F40A2661F0232B242B252B21F40895B6
:103DC0000A2609F4A140A6958FEF811D811D089553
:103DD00097F99F6780E870E060E008959FEF80ECBE
:103DE000089500240A941616170618060906089561
:103DF00000240A9412161306140605060895092EC7
:103E00000394000C11F4882352F0BB0F40F4BF2B35
:103E100011F460FF04C06F5F7F4F8F4F9F4F089575
:103E200057FD9058440F551F59F05F3F71F047956B
:103E3000880F97FB991F61F09F3F79F08795089550
:103E4000121613061406551FF2CF4695F1DF08C06F
:103E5000161617061806991FF1CF8695710561058C
:103E600008940895E894BB2766277727CB0197F934
:103E700008958ADF08F48FEF08950BD0C0CFB1DF2B
:103E800028F0B6DF18F0952309F0A2CFA7CF1124B0
:103E9000EACFC6DFA0F3959FD1F3950F50E0551FF1
:103EA000629FF001729FBB27F00DB11D639FAA278F
:103EB000F00DB11DAA1F649F6627B00DA11D661FDE
:103EC000829F2227B00DA11D621F739FB00DA11DFF
:103ED000621F839FA00D611D221F749F3327A00DB9
:103EE000611D231F849F600D211D822F762F6A2F55
:103EF00011249F5750408AF0E1F088234AF0EE0FDA
:103F0000FF1FBB1F661F771F881F91505040A9F7E6
:103F10009E3F510570F05CCFA6CF5F3FECF3983E1B
:103F2000DCF3869577956795B795F795E7959F5F4D
:103F3000C1F7FE2B880F911D9695879597F90895E7
:103F4000AA1BBB1B51E107C0AA1FBB1FA617B707BF
:103F500010F0A61BB70B881F991F5A95A9F78095DB
:103F60009095BC01CD01089597FB092E07260AD034
:103F700077FD04D0E5DF06D000201AF47095619536
:103F80007F4F0895F6F7909581959F4F0895A1E290
:103F90001A2EAA1BBB1BFD010DC0AA1FBB1FEE1FC3
:103FA000FF1FA217B307E407F50720F0A21BB30B0E
:103FB000E40BF50B661F771F881F991F1A9469F78A
:103FC00060957095809590959B01AC01BD01CF01E6
:103FD00008952F923F924F925F926F927F928F92AD
:103FE0009F92AF92BF92CF92DF92EF92FF920F9388
:103FF0001F93CF93DF93CDB7DEB7CA1BDB0B0FB692
:10400000F894DEBF0FBECDBF09942A88398848884E
:104010005F846E847D848C849B84AA84B984C884E4
:10402000DF80EE80FD800C811B81AA81B981CE0FDB
:10403000D11D0FB6F894DEBF0FBECDBFED010895C0
:10404000CF93DF93BC018230910510F462E070E001
:10405000A0913102B0913202ED01E0E0F0E040E0E9
:1040600050E021C0888199818617970769F48A8179
:104070009B81309719F09383828304C0909332021E
:1040800080933102FE0134C06817790738F4411576
:10409000510519F08417950708F4AC01FE018A81D7
:1040A0009B819C01E9012097E9F641155105A9F191
:1040B000CA01861B970B049708F4BA01E0E0F0E010
:1040C0002AC08D919C91119784179507F9F4641774
:1040D000750781F412968D919C911397309719F082
:1040E0009383828304C09093320280933102FD0156
:1040F00032964FC0CA01861B970BFD01E80FF91FCE
:104100006193719302978D939C9343C0FD018281CB
:1041100093819C01D9011097A1F680912F02909173
:104120003002892B41F48091F5009091F600909334
:10413000300280932F024091F7005091F800411512
:10414000510541F44DB75EB78091F3009091F400B2
:10415000481B590B20912F0230913002241735074C
:10416000B0F4CA01821B930B8617970780F0AB014E
:104170004E5F5F4F8417950750F0420F531F5093C7
:10418000300240932F02F9016193719302C0E0E085
:10419000F0E0CF01DF91CF910895CF93DF930097A7
:1041A00009F450C0EC0122971B821A82A0913102BF
:1041B000B0913202109709F140E050E0AC17BD0712
:1041C00008F1BB83AA83FE0121913191E20FF31F15
:1041D000AE17BF0779F48D919C911197280F391F65
:1041E0002E5F3F4F3983288312968D919C911397B0
:1041F0009B838A834115510571F4D0933202C09399
:10420000310220C012968D919C911397AD010097B9
:1042100011F0DC01D3CFFA01D383C2832191319114
:10422000E20FF31FCE17DF0769F488819981280F09
:10423000391F2E5F3F4FFA01318320838A819B8192
:1042400093838283DF91CF910895FC01882799277A
:10425000E89421912032E9F3293010F02E30C8F390
:104260002B3241F02D3239F4689404C00E9492221E
:10427000820F911D219120532A30C0F31EF4909596
:1042800081959F4F0895283008F027E03327DA0101
:10429000990F311D87FD916000966105710539F414
:1042A00032602E5F3D9330E32A95E1F708959F3FFA
:1042B00030F080387105610509F03C5F3C5F3D934B
:1042C000913008F08068911DDF93CF931F930F9377
:1042D000FF92EF92192F987F9695E92F96959695D4
:1042E000E90FFF27E451FF4F99273327EE24FF24DE
:1042F000A701E70105900894079428F4360FE71EFC
:10430000F81E491F511D660F771F881F991F0694BD
:10431000A1F70590079428F4E70EF81E491F561FD1
:10432000C11D770F881F991F661F0694A1F705907E
:10433000079428F4F80E491F561FC71FD11D880F78
:10434000991F661F771F0694A1F70590079420F424
:10435000490F561FC71FD81F990F661F771F881F49
:104360000694A9F784911095177041F0D695C795DA
:1043700057954795F794E7941A95C1F7E2E9F0E06D
:1043800068941590159135916591959105907FE20E
:104390007395E118F10A430B560BC90BD009C0F70E
:1043A000E10CF11E431F561FC91FD01D7EF4703350
:1043B00011F48A95E6CFE894015030F0080F0AF422
:1043C0000027021708F4202F2395022F7A3328F0B4
:1043D00079E37D932A95E9F710C07D932A9589F6B4
:1043E000069497956795379517951794E118F10AF4
:1043F000430B560BC90BD00998F023957E9173950A
:104400007A3308F070E37C932013B8F77E917061E3
:104410007D9330F0839571E37D9370E32A95E1F706
:104420001124EF90FF900F911F91CF91DF91992769
:1044300087FD90950895FC01059061507040011032
:10444000D8F7809590958E0F9F1F089545E152E013
:104450000E946B220895FB01DC0101900D92002067
:10446000E1F70895DC01FB014150504058F049F05C
:1044700001900D920020C1F7E61BF70B3197CF0199
:1044800008951C9201900020E9F7F6CFFC016150DD
:10449000704001900110D8F7809590958E0F9F1F66
:1044A0000895FB0151915523A9F0BF01DC014D9105
:1044B00045174111E1F759F4CD010190002049F071
:1044C0004D9140154111C9F3FB014111EFCF81E03E
:1044D00090E001970895FA01A191B081009719F435
:1044E0001097E1F0CD01DC01CD010D90002011F419
:1044F000C00113C0FB012191222319F02015D9F727
:10450000F3CFFB012191201519F41E92119606C0DC
:104510002223C1F70D900020A1F7D001FA01A19349
:10452000B08308957AE0979F902D879F802D910DFD
:10453000112408950F931F93CF93DF938C01EB0108
:104540008B8181FF1BC082FF0DC02E813F818C813A
:104550009D812817390764F4E881F9810193F98373
:10456000E88306C0E885F985802F0995892B31F409
:104570008E819F8101969F838E8302C00FEF1FEF74
:10458000C801DF91CF911F910F9108950F931F9351
:10459000CF93DF938C01E0913502F0913602838155
:1045A00081FF21C0C0E0D0E00DC0E0913502F09164
:1045B000360220853185BF01F9010995892B11F05B
:1045C000CFEFDFEFF80181918F01882371F7E09140
:1045D0003502F0913602208531858AE0BF01F9016C
:1045E0000995892B11F0CFEFDFEFCE01DF91CF914D
:1045F0001F910F910895AEE0B0E0E1E0F3E20C947A
:10460000F71F0D891E8986E08C831A8309838FEF3B
:104610009FE79E838D839E01275E3F4FCE010196CB
:104620006F89788DA9010E94031A2F813885020FA6
:10463000131FF80110822E96E4E00C941320FA0167
:10464000AA27283051F1203181F1E8946F936E7FD1
:104650006E5F7F4F8F4F9F4FAF4FB1E03ED0B4E0C2
:104660003CD0670F781F891F9A1FA11D680F791F03
:104670008A1F911DA11D6A0F711D811D911DA11D14
:1046800020D009F468943F912AE0269F1124301924
:10469000305D3193DEF6CF010895462F4770405DBF
:1046A0004193B3E00FD0C9F7F6CF462F4F70405D6E
:1046B0004A3318F0495D31FD4052419302D0A9F7C9
:1046C000EACFB4E0A6959795879577956795BA95C3
:1046D000C9F700976105710508959B01AC010A2E89
:1046E00006945795479537952795BA95C9F7620F60
:0E46F000731F841F951FA01D0895F894FFCF1F
:1046FE0041542B43434C4B3D25730A0041542B43ED
:10470E004D47463D31002B435553440041542B43F6
:10471E00434C4B3F002B43434C4B00200045525221
:10472E004F52002B434D4753003A002B4344533A0C
:10473E002036002C002B434D475200524543205249
:10474E004541440052454320554E52454144004197
:10475E00542B434D474C0041542B43504D533F0077
:10476E002B43504D5300534D002F004F6F7073006D
:10477E00596F757220534D53205265636965766586
:0A478E006421002000390200000041
:00000001FF
